:020000040800F2
:1000000038550020E1010008732200083919000862
:10001000712200085B040008152800080000000099
:10002000000000000000000000000000490100087E
:100030009F040008000000008D010008BD22000898
:10004000FB010008FB010008FB010008FB010008A0
:10005000FB010008FB010008FB010008FB01000890
:10006000FB010008FB010008FB010008FB01000880
:10007000FB010008FB010008FB010008FB01000870
:100080005D04000869040008FB010008FB0100088A
:10009000FB010008FB010008FB010008FB01000850
:1000A000FB010008FB010008FB010008FB01000840
:1000B000FB010008FB010008FB010008FB01000830
:1000C000FB010008FB010008FB010008FB01000820
:1000D000FB0100087D27000889270008FB010008B4
:1000E000FB010008FB010008FB010008FB01000800
:1000F000FB010008FB010008FB010008FB010008F0
:10010000FB010008FB010008FB010008FB010008DF
:10011000FB010008FB010008FB010008492300085F
:10012000FB010008FB010008FB010008FB010008BF
:10013000DFF810D000F0DAF800480047C52C0008BE
:10014000AFF3008038550020224B19680868B0E8EA
:10015000F00F80F30988BFF36F8F4FF0000080F33A
:1001600011884EF00D0E7047000000000648006830
:10017000006880F3088862B661B6BFF34F8FBFF3A3
:100180006F8F00DF00BF00BF08ED00E0EFF30980D4
:10019000BFF36F8F0F4B1A6820E9F00F106008B59E
:1001A0004FF0500080F31188BFF34F8FBFF36F8F74
:1001B00005F0B2F94FF0000080F31188BDE8084067
:1001C00019680868B0E8F00F80F30988BFF36F8FF3
:1001D000704700BF14000020EFF305807047000057
:1001E0000648804706480047FEE7FEE7FEE7FEE7D1
:1001F000FEE7FEE7FEE7FEE7FEE7FEE7472300082F
:10020000310100080649074A0868504343F23902A1
:1002100010440860400870470149086070470000BA
:10022000880000206D4EC64140EA01039B0703D0C1
:1002300009E008C9121F08C0042AFAD203E011F825
:10024000013B00F8013B521EF9D27047D2B201E0E7
:1002500000F8012B491EFBD270470022F6E710B5CB
:1002600013460A4604461946FFF7F0FF204610BD24
:1002700030B505462A460B4612F8010B13F8014B20
:1002800008B1A042F8D01CB1002802D06D1CF1E7E3
:10029000284630BD421C10F8011B0029FBD1801AF2
:1002A000704730B505460020034600E05B1C9342D2
:1002B00005D2EC5CC85C201A01D1002CF6D130BD0F
:1002C00030B50B46014600202022012409E021FA26
:1002D00002F59D4205D303FA02F5491B04FA02F523
:1002E0002844151EA2F10102F1DC30BD064C074D79
:1002F00006E0E06840F0010394E8070098471034F6
:10030000AC42F6D3FFF718FFB0620008D0620008D5
:1003100010B503220021012005F0D3F9044C03227B
:1003200000212060012005F0CCF9606010BD0000C4
:100330008000002070B50B4C06464FF0FF350A498F
:10034000304601F097FF002807D02946606805F085
:10035000D1FA18B10128F2D0002070BD6FF0010071
:1003600070BD0000800000202C490020184E194D5F
:1003700028880104FCD5C7B217491848FFF778FF51
:1003800028B100231A461946306805F003FA14A173
:100390001248FFF76DFF90B11424DFF8408006E0AB
:1003A00018F804000F4901F078FF641CE4B2BC4265
:1003B000F6D300231A461946706805F0EBF94FF49E
:1003C00080610648FFF749FF00202880D0E7000041
:1003D000800000207C000020344D00202C450020AF
:1003E000495044002C49002070B515460E4604467D
:1003F000FFF750FF01462A46204602F001FA6FF04F
:10040000010498B94FF480610A48FFF726FF30468F
:10041000FFF740FF024631460648FFF705FF064852
:100420002946006805F066FA012801D0204670BD13
:10043000002070BD344D00208000002010B502F077
:10044000DFF9002801D06FF0010010BD10B502F0F7
:10045000C5F9BDE81040FFF75BBFFEE7014800F0BB
:10046000DDB800006C030020014800F0D7B80000A0
:10047000B003002030B590F840500124AC40C56B6B
:100480006C60046863604368102B036803D0996054
:100490000068C26030BD9A600068C16030BD7047BE
:1004A00072B6FEE710B590F821100022022905D09F
:1004B0000421816380F82020012010BD01680B68B1
:1004C00023F00E030B6001680B6823F001030B603F
:1004D00090F84030C46B012101FA03F3636080F8A7
:1004E000211080F82020104610BD00002DE9F05F9B
:1004F00090F821100024022903D0042181630124F3
:1005000085E001680A6822F00E020A6001680A6844
:1005100022F001020A603F4E3E4FB215DFF8F4C0F0
:10052000DFF8F090DFF8ECA0DFF8E8B0DFF8E4E007
:100530000168783F13011502ACF1640CA9F1500970
:10054000AAF13C0AABF1280BAEF1140E4FF480185F
:10055000B14227D9B9420ED0614512D049451DD0CC
:10056000514518D0594518D0714501D1424615E082
:10057000294EB14201D1012210E0274E1436B1427A
:1005800001D110220AE0244E2836B14206D0224A78
:100590003C32914201D11A4600E02A461E49091F09
:1005A0000A602BE0B94213D0614517D0494522D0EB
:1005B00051451DD059451DD0714501D142461AE023
:1005C000B14202D14FF0807215E0134EB14201D119
:1005D000012210E0104E1436B14201D110220AE07F
:1005E0000D4E2836B14206D00B4A3C32914201D121
:1005F0001A4600E02A46074980394A60012180F8FE
:100600002110002180F82010416B01B1884720465D
:10061000BDE8F09F80000240080402402DE9F05F31
:10062000C16B0A6801680B68046C4FF0040808FA93
:1006300004F8844D844E854FDFF814C2DFF814921D
:10064000DFF814A2DFF814B2DFF814E218EA020FA0
:1006500065D05FEA437862D50A68920603D40A68D7
:1006600022F004020A60DFF8F0814FF48062016832
:1006700008F1140813011402414524D9A9420DD0F0
:10068000B1420FD0B9421AD0614515D0494515D0B5
:10069000514501D1120312E0594501D104220EE067
:1006A000714501D140220AE06D4D1435A94206D0B2
:1006B0006B4A2832914201D11A4600E0224667492E
:1006C000091F0A6029E0A94213D0B14215D0B942EE
:1006D00020D061451BD049451BD0514502D14FF474
:1006E000800217E0414502D14FF0806212E0594587
:1006F00001D104220EE0714501D140220AE0584D9B
:100700001435A94206D0564A2832914201D11A46E0
:1007100000E022464B4908394A60C16A71E04FF057
:10072000020808FA04F818EA020F70D05FEA83782A
:100730006DD50A68920606D40A6822F00A020A6099
:10074000012180F82110DFF810814FF40072016858
:1007500008F1140813011402414524D9A9420DD00F
:10076000B1420FD0B9421AD0614515D0494515D0D4
:10077000514501D1120312E0594501D102220EE088
:10078000714501D120220AE0354D1435A94206D029
:10079000334A2832914201D11A4600E022462F49BD
:1007A000091F0A6029E0A94213D0B14215D0B9420D
:1007B00020D061451BD049451BD0514502D14FF493
:1007C000001217E0414502D14FF0007212E0594586
:1007D00001D102220EE0714501D120220AE0204D14
:1007E0001435A94206D01E4A2832914201D11A4638
:1007F00000E02246134908394A60002180F82010A1
:10080000816A00291CD0BDE8F05F0847FFE7082592
:10081000A540154214D01A0712D50A6822F00E021C
:100820000A6090F84020C36B012101FA02F25A607D
:10083000816380F82110002180F82010016BE0E72F
:10084000BDE8F09F080002401C000240300002405A
:1008500044000240580002406C000240080402407C
:100860001C04024030B560B11A4B026814219A4250
:1008700009D2194B1344B3FBF1F189000164174904
:100880000AE0012030BD134B5B421344B3FBF1F18E
:10089000890001640F490839C163022180F82110E1
:1008A000136843F6F0718B43F0E901142143D0E95A
:1008B00002452C432143046921434469214384694F
:1008C00021431943116000214163012242770177DE
:1008D000084630BD08040240F8FFFDBF000002409A
:1008E00070B5044690F82000002501280CD00120A6
:1008F00084F8200094F821600020012E06D084F8AE
:1009000020000225284670BD022070BD022684F812
:100910002160A0632068066826F001060660204674
:10092000FFF7A8FDE06A00282068016802D041F0C6
:100930000E0106E021F0040101602068016841F029
:100940000A0101602068016841F001010160D9E7F6
:100950002DE9F84FDFF8C891002409F1040A0AF1E3
:10096000040B23460F270BF1040ED1E00125A5400F
:1009700006EA0502AA4276D1DFF8A8C14E68A6EBC6
:100980000C0866452BD00DDC032E34D005DC36B3C5
:10099000012E19D0022E2FD11BE0112E16D0122EAF
:1009A0002AD119E0B8F5881F19D006DCB8F5803FC8
:1009B00015D0B8F5801F1FD111E0B8F5001F0ED07B
:1009C000B8F5041F18D10AE0CB6815E0CB681B1DF1
:1009D00012E0CB6808330FE0CB680C330CE08B6877
:1009E0002BB1012B4FF0080303D0456104E0042331
:1009F00002E0056100E00023FF2A01D8064601E07D
:100A000000F104064FEA840501D9A5F12005D6F8C6
:100A1000008007FA05FC28EA0C0803FA05F548EA05
:100A20000508C6F800804D68ED0070D53E4DAE69F2
:100A300046F00106AE61AD6924F0030605F001053C
:100A400000953A4D06EB050CDCF80850A607360F6A
:100A500007FA06F825EA0805DFF8D480404503D1F7
:100A60004FF0000825E052E0DFF8C880404502D191
:100A70004FF001081DE0DFF8C080404502D14FF083
:100A8000020816E0DFF8B480404502D14FF00308B9
:100A90000FE0DFF8AC80404502D14FF0040808E0D9
:100AA000DFF8A080404502D14FF0050801E04FF08B
:100AB000060808FA06F848EA0508CCF808804D68E8
:100AC000D9F80060ED034D4601D5164300E096438A
:100AD0002E604D68DAF80060AD03554601D5164327
:100AE00000E096432E604D68DBF80060ED025D4645
:100AF00001D5164300E096432E604D68DEF8006095
:100B0000AD02754601D5164300E096432E60641C85
:100B10000A681646E2407FF429AFBDE8F88F00006E
:100B200000040140000011100010024000000140CC
:100B300000080140000C0140001001400014014079
:100B400000180140001C01400AB10161704709040E
:100B5000FBE70000014880687047000004000020A7
:100B600002488168027811448160704704000020C7
:100B7000074810B5016841F010010160032000F042
:100B800095F80F2000F006F800F03EF8002010BDA8
:100B90000020024000B5014687B00022372000F057
:100BA00065F8372000F054F81348C16941F020017E
:100BB000C161C06905A900F020000690684600F0F8
:100BC0001DF900F03BF90D494000B0FBF1F10D4873
:100BD0000B4A491E0260416040F2E7320021C0E941
:100BE0000321816000F012FB10B1012007B000BDAD
:100BF000044800F039FBF9E70010024040420F00C2
:100C000000140040F40300200F4808B5816941F04A
:100C100001018161816901F001010091C16941F027
:100C20008051C161C069002200F0805000900F2106
:100C3000901E00F01BF80548416821F0E06141F08A
:100C40000071416008BD000000100240000001403A
:100C5000002809DB00F01F020121914040098000BB
:100C600000F1E020C0F8001170470000F0B40E4B16
:100C70001B680C46C3F30223C3F10705042D00D9FA
:100C80000425191D072901D2002300E0DB1E0126DF
:100C900006FA05F1491E214099409E40761E1640F5
:100CA0003143F0BC01F0DCBD0CED00E0064900F082
:100CB000070208684FF6FF03184040EA0220034A83
:100CC00010430860704700000CED00E00000FA05DA
:100CD0002DE9F0470F46050061D0434E306800F023
:100CE0000700B84209D2306820F00700384330606E
:100CF000306800F00700B84251D128683B4C8107AA
:100D000012D5400703D5606840F4E0606060287841
:100D1000000703D5606840F4605060606068A968AF
:100D200020F0F000084360602878C00728D0686889
:100D3000012810D02168022810D0890700292EDA56
:100D4000616821F0030101436160FFF703FF804602
:100D500041F288390DE021688903EFE78901EDE769
:100D6000FFF7F8FEA0EB0801494502D90320BDE8D2
:100D7000F0876068696800F00C00B0EB810FEFD17C
:100D8000306800F00700B8420BD9306820F0070047
:100D900038433060306800F00700B84201D00120CD
:100DA000E5E72878400705D56068E96820F4E06049
:100DB000084360602878000706D56068296920F438
:100DC000605040EAC100606000F058F86168084A6D
:100DD000C1F30311515CC840064908600648006829
:100DE000FFF7D8FE0020C2E70020024000100240BA
:100DF000C45E000810000020080000200F220260DE
:100E00000C4A536803F003034360536803F0F00394
:100E10008360536803F4E063C36052684FF4E06397
:100E200003EAD20202610448006800F0070008608B
:100E300070470000001002400020024004480549AD
:100E400000684968044AC1F30221515CC8407047F8
:100E50001000002000100240D45E0008044805493C
:100E600000684968044AC1F3C221515CC840704718
:100E70001000002000100240D45E000812A185B0CE
:100E80000FC98DE80F0014A0144A0068049051683F
:100E9000134801F00C03042B10D0082B0ED1C1F322
:100EA0008343C9031DF803000AD5516804AAC1F39E
:100EB0004041515C0A4A5043B0FBF1F005B0704725
:100EC00008494843FAE70000020304050607080939
:100ED0000A0B0C0D0E0F1010010200000010024052
:100EE00000127A0000093D002DE9F84F040070D08F
:100EF0002078C04DC00749D06868C0F38100012840
:100F000007D06868C0F38100022809D16868C0036F
:100F100006D52868800339D560680028E7D035E019
:100F20006068B0F5803F0BD010B1B0F5A02F11D0A4
:100F3000286820F480302860286820F4802002E0AF
:100F4000286840F480302860606890B1FFF702FEA6
:100F500006460AE0286840F480202860F0E700BFD9
:100F6000FFF7F8FD801B642873D828688003F7D545
:100F70000CE0FFF7EFFD064605E000BFFFF7EAFDD6
:100F8000801B6428F0D828688003F7D420789A4E14
:100F900080074FF001094FF0000839D5686810F05C
:100FA0000C0F07D06868C0F38100022809D1686877
:100FB000C00306D42868800714D52069012808D109
:100FC00010E02069B0B1C6F80090FFF7C3FD0746F6
:100FD00005E00AE1FFF7BEFDC01B0228C4D828685F
:100FE0008007F7D52868616920F0F80040EAC10061
:100FF00028600DE0C6F80080FFF7ACFD074604E06E
:10100000FFF7A8FDC01B022823D828688007F7D463
:10101000207800072CD57948A169D9B1C0F8009093
:10102000FFF798FD074604E0FFF794FDC01B022878
:101030000FD8686A8007F7D571484FF4FA510068F5
:10104000B0FBF1F0009000BF0098411E0091FAD271
:101050000EE080E0C0F80080FFF77CFD074604E06A
:10106000FFF778FDC01B022875D8686A8007F7D49F
:101070002078400760D5E8690027C00008D4E869F7
:1010800040F08050E861E869012700F0805000904E
:101090005C480168C90513D40168834641F4807136
:1010A0000160FFF757FD824606E000BFFFF752FDE3
:1010B000A0EB0A0064284ED8DBF80000C005F5D587
:1010C000E06801280AD008B1052813D0286A20F06A
:1010D00001002862286A20F0040002E0286A40F03B
:1010E00001002862E06841F2883B98B1FFF732FDC9
:1010F00082460BE0286A40F004002862EEE700BF59
:10110000FFF728FDA0EB0A0159455AD8286A800745
:10111000F6D50CE0FFF71EFD824605E0FFF71AFD4D
:10112000A0EB0A0159454CD8286A8007F6D41FB1B4
:10113000E86920F08050E861E06988B36968C1F32C
:101140008101022944D00228C6F8608004D0FFF74C
:1011500001FD044638E034E0FFF7FCFC074604E0FC
:10116000FFF7F8FCC01B02282BD828688001F7D4B1
:10117000206AB0F5803F05D16868A16820F400308E
:1011800008436860D4E908010843696821F47411D0
:1011900008436860C6F86090FFF7DCFC044606E090
:1011A00025E000BFFFF7D6FC001B022809D82868FD
:1011B0008001F7D51BE000BFFFF7CCFC001B022825
:1011C00002D90320BDE8F88F28688001F4D40EE02E
:1011D0000128F7D06868226A00F48031914204D176
:1011E000616A00F47010884201D00120EAE7002013
:1011F000E8E7000000100240000042428004424242
:1012000010000020007000407047704710B50400C7
:1012100003D094F83D0010B107E0012010BD00207C
:1012200084F83C00204600F01EF8022084F83D00BF
:10123000211D206801F08EF8012084F8460084F812
:101240003E0084F83F0084F8400084F8410084F8B0
:10125000420084F8430084F8440084F8450084F890
:101260003D00002010BD704790F83D10012901D0CD
:1012700001207047022180F83D100168CA6842F0E1
:101280000102CA6000680E4988420ED00D498842AA
:101290000BD0B0F1804F08D00B49884205D00B49E4
:1012A000884202D00A49884204D1816801F00701CE
:1012B000062903D0016841F0010101600020704758
:1012C000002C0140003401400004004000080040B0
:1012D000000C0040704770B50446006801694FF08B
:1012E0000005C943890715D4C168C943890711D4CA
:1012F000E91E01610120207720688069800720466F
:1013000002D0FFF7E7FF04E000F098F8204600F075
:1013100096F8257720680169C943490717D4C16841
:10132000C943490713D46FF00401016102202077FB
:101330002068806910F4407F204602D0FFF7CAFF82
:1013400004E000F07BF8204600F079F8257720686B
:101350000169C943090716D4C168C943090712D4F2
:101360006FF008010161042020772068C0698007C0
:10137000204602D0FFF7AEFF04E000F05FF8204601
:1013800000F05DF8257720680169C943C90617D4C4
:10139000C168C943C90613D46FF010010161082068
:1013A00020772068C06910F4407F204602D0FFF704
:1013B00091FF04E000F042F8204600F040F8257765
:1013C00020680169C943C90708D1C168C943C90771
:1013D00004D1891E0161204600F032F820680169BD
:1013E000C943090609D4C168C943090605D46FF089
:1013F000800101612046FFF707FF20680169C943AA
:10140000490609D4C168C943490605D46FF04001B3
:101410000161204600F01EF820680169C943890671
:101420000BD4C168C943890607D46FF0200101615C
:101430002046BDE87040FFF7E8BE70BD70477047BA
:1014400000680349884201D1FFF78ABB704700005A
:10145000001400407047704710B5044600684169A9
:1014600094F83D20C1F3C011212A0BD151B141693B
:1014700021F080014161606B08B1FFF713F820464D
:1014800001F051F82068416994F83E20C1F38011C1
:10149000222A0BD151B1416921F040014161A06B79
:1014A00008B1FEF7FFFF204601F025F8002010BD2F
:1014B00070470000F8B5026804461068D1685369A7
:1014C00010F00F0F4FF0000553D003F0010601F4A8
:1014D000907737435FD0C20705D0CA0503D5226C89
:1014E00042F001022264420705D5DA0703D0226CDC
:1014F00042F002022264820705D5DA0703D0226C8B
:1015000042F004022264020707D501F020023243B0
:1015100003D0226C42F008022264226C002A34D0EC
:10152000800604D5880602D5204601F005F820681B
:101530004069216CC0F38010090700D430B3204605
:1015400000F0D9FF2068416949061BD5416921F0A7
:1015500040014161A06BA8B158494163A06BFEF7FF
:10156000C5FF002811D0A06B416B01B0BDE8F04071
:10157000084783060FD58B060DD52046BDE8F840F9
:1015800000F0DABF2046FFF793FFF8BD2046FFF7D3
:101590008FFF2564F8BD266B2023012E52D1C6068D
:1015A00050D5CE064ED51068506800905069400660
:1015B0002AD5A16B086840680004000CEAD0A68D0B
:1015C0008642E7D9E0858869202818D0D06820F4C1
:1015D0008070D0602068416921F00101416120687C
:1015E000416921F04001416184F83E302563206863
:1015F000C16821F01001C160A06BFEF753FFA08D00
:10160000E18D401A81B219E0A08DE18D401A81B2BE
:10161000E08D0028BED00029BCD0D06820F49070A6
:10162000D0602068426922F00102426184F83E30B5
:1016300025632068C26822F01002C2602046FFF7CE
:101640000AFFF8BD05062BD50D0629D594F83D00F7
:101650002128F6D1A068B0F5805F01D12069B0B132
:10166000206A411C2162216800784860E08C401E9D
:101670000004000CE084E4D12068C16821F08001FE
:10168000C1602068C16841F04001C160F8BD206AB6
:101690000088C0F308005060206A801C2062E5E7E3
:1016A0004006F3D54806F1D5D168204621F0400127
:1016B000D16084F83D3000F03EF9F8BD29240008DF
:1016C00070B5040004D094F83D00002510B106E088
:1016D000012070BD84F83C50204600F023F82420FF
:1016E00084F83D002068C16821F40051C1602046A3
:1016F00000F07EFF2068016921F4904101612068BB
:10170000416921F02A0141612068C16841F400511A
:10171000C1602564202084F83D0084F83E0000204C
:1017200070BD0000F0B585B00024009401940294CF
:1017300003940646414F0368414802210322414D6C
:10174000BB4226D1836943F480438361836903F4F8
:1017500080430493836943F00403836180690392A7
:1017600000F0040004900802CDE900016946284613
:10177000FFF7EEF82815CDE90004694628460294E3
:10178000FFF7E6F8002205212520FFF76FFA252054
:1017900050E02D4FBB424FD1C36943F40033C361C6
:1017A000C36903F400330493836943F00403836142
:1017B0008069039200F0040004900420CDE9000148
:1017C00069462846FFF7C4F80820CDE900046946B9
:1017D00028460294FFF7BCF81D4D1C488027C5E938
:1017E0000004C5E902472C616C61AC612846EC61DC
:1017F000FFF738F808B1FEF753FEB5636E62144D7B
:1018000012484435143001C5102091C5104845F8E0
:10181000104944306C61AC61EC61FFF723F808B10A
:10182000FEF73EFE75630022052126206E62FFF75B
:101830001DFA2620FFF70CFA05B0F0BD0038014074
:101840000010024000080140004400406C000240CB
:101850006C03002090F83E30202B0ED159B152B1CC
:1018600090F83C30012B08D0012380F83C30002355
:10187000036300F019BF01207047022070477047D2
:10188000704700002DE9F843044690F83D001F46DC
:1018900016460D4620284CD1C5B1BEB194F83C0087
:1018A000012846D0012084F83C004FF00008C4F81D
:1018B0004080212084F83D00FFF74CF9A684814642
:1018C000E684A068B0F5805F03D004E00120BDE8A5
:1018D000F883206928B12E465FF0000584F83C802B
:1018E0000EE00026FAE78021204600F015FFA0B99F
:1018F000AEB116F8010B21684860E08C401EE08410
:10190000E08C4B464FF0000200970028EBD14FF0DF
:101910004001204600F000FF30B10320D7E735F842
:10192000020BC0F30800E6E7202084F83D00002009
:10193000CDE70220CBE77047FEE72DE9FC410746E3
:1019400015460E4600246846009303F011FB60F331
:101950000704C4F3C00030702009387001A9009852
:1019600000F0F0F80099019A014400910A44511ADC
:10197000022904DB684603F001FB28800120BDE852
:10198000FC812DE9FC41074600240E4625466846A9
:10199000009203F0EDFA0146204661F307000009CA
:1019A000022819D101A9009800F0CCF80099054649
:1019B0000844019900900144081A02280CDB68468B
:1019C00003F0D6FA60F3070404F0010038706846AB
:1019D00003F0CEFA307001252846BDE8FC812DE9E0
:1019E000FC5F8046DDE90EA00024CDE900049946A5
:1019F00017460E462546DDF834B0684603F0B8FABF
:101A000060F30704200903282CD1C4F3C00188F82F
:101A10000010C4F34100306004F00100387001A9E7
:101A2000009800F08FF8009905460844019900904D
:101A30004418224669460C9803F0A9FA90B1009820
:101A4000201A0FD43068002804DD684603F096FAA7
:101A5000A9F800000098211ACAF800100099012581
:101A6000CBF800102846BDE8FC9F2DE9FC478146D5
:101A70000A98002400909A461646884625466846ED
:101A800003F076FA0146204661F3070000090928B1
:101A900026D101A9009800F055F8009905460844A0
:101AA000019900904718381A022819DB684603F09C
:101AB00065FAA9F8000034600EE03168414502DDA6
:101AC0004FF0FF350CE0684603F052FA31688B00A6
:101AD000491C31604AF803000098B842EDD3012553
:101AE0002846BDE8FC870EB500238DF804308DF83C
:101AF000083000920B46024602A901A8FFF71DFF1D
:101B00009DF804100B2900D101200EBDF8B5012568
:101B100000240E4607460C60641C042C0FDC0121D7
:101B20006846B84701280AD19DF80000316800F0E6
:101B30007F0202FB0511ED0131600006ECD4204666
:101B4000F8BD0000024A10600248FFF7DFBF000046
:101B500078000020F52B000810B503460020CA17B6
:101B600001EB526424F07F02891ACAB2E111002904
:101B700002DD00BF42F080021A5400F10100EEDCE9
:101B800010BD70B504680E4624B12046FEF782FBF6
:101B9000054601E0D0E901543046FEF77BFB854263
:101BA00005D12A4631462046FEF77BFB08B10020CE
:101BB00070BD012070BD0000401C802801DA401C6F
:101BC0007047B0F5804F01DA801C704703498842A6
:101BD00001DAC01C7047001D70470000FFFF1F00A6
:101BE000F8B50024069E05460090042901DAA01EDF
:101BF000F8BD62F3071463F3C304062A24F0060059
:101C000000D1801CC1B2684603F0CCFC02210098D0
:101C1000FFF7A2FF0099084400903146684603F0A0
:101C2000C7FC0098401BF8BD2DE9F843074600901B
:101C3000884614460025104600F082F88146FFF7DA
:101C4000BBFF404502DDA81EBDE8F8832E463146A5
:101C500066F307016846103103F0A4FC494600987A
:101C6000FFF77AFF009908440090207A04281DD0DD
:101C70002FA1684603F082FC0321684603F092FC22
:101C8000A07E66F3070560F34105E07E08B145F0EC
:101C90000405680707D594F83D0060F3C40594F87F
:101CA0003C0060F34515206C40B905E022A1684670
:101CB00003F064FC0421E0E7A06C08B145F0800566
:101CC000E06C08B9606D08B145F0400529466846EA
:101CD00003F068FC218B684603F06AFC04F10C01F8
:101CE00068460EC903F073FCE07E68B12434684690
:101CF00094E80E00243C03F06AFC3034684694E813
:101D00000E00303C03F063FC280605D504F14001C9
:101D100068460EC903F05BFC680605D54C3468467E
:101D200094E80E0003F053FC0098C01B8CE7000001
:101D30004D514973647000004D515454000000002F
:101D400070B50446007A0025032802D0042802D08A
:101D500002E00C2500E00A2504F10C0007C800F0A1
:101D6000B7F90544E07EAD1C78B1243494E807004F
:101D7000243C00F0ADF93034064694E80700303CCE
:101D800000F0A6F9304405442D1D206C08B9A16C63
:101D900029B1D4E9111200F09BF90544AD1CE06CA7
:101DA00008B9616D29B1D4E9141200F091F9054424
:101DB000AD1C284670BD0C2200F0AFB82DE9FC5FC9
:101DC0001C46129ECDE90060DDF838B09046DDF883
:101DD00030A0DDE90F23894607465946204600F02A
:101DE00030F80546FFF7E8FE484503DD6FF00100D7
:101DF000BDE8FC9F302168F3C30164F342016AF33C
:101E0000000101A803F0CEFB29460198FFF7A4FECC
:101E1000019908440190DDE90F23594601A803F018
:101E2000D6FB002C03DD01A80D9903F0C1FB32465F
:101E300011990198FEF7F8F9019830440190C01B00
:101E4000D6E770B50E46114604461A463046049D44
:101E500000F03EF92844801C002C00DD801C70BD81
:101E60002DE9FF4F83B0064610A8894690E8800907
:101E700000249246254641463846009600F036F842
:101E80000190FFF799FE484503DDA01E07B0BDE8AD
:101E9000F08F64F3070480346AF3C30424F006006F
:101EA000801CC1B2684603F07DFBDDE90001FFF74D
:101EB00053FE0099084400906846069903F078FBA9
:101EC0000FE000BF05EB450108EB810090E80E0034
:101ED000684603F07CFB1BF82510684603F062FBA4
:101EE0006D1CBD42EEDB0098801BCFE72DE9F04171
:101EF00002250F46064600240AE000BF04EB44001A
:101F000007EB800007C800F0E3F80544641CED1CF3
:101F1000B442F3DB2846BDE8F08138B5002304461F
:101F20000090022901DA981E38BD194663F30701B3
:101F300062F30711684603F035FB00210098FFF7B4
:101F40000BFE009908440090001B38BD1FB500240B
:101F5000009401940294039401F0DEFA05462DA149
:101F600001F0A6FF2DA1284601F02EFF0A2002F065
:101F7000A3FF0146284601F0DFFE0A2002F09CFF85
:101F80000146284601F0CEFF0A2002F095FF0146E7
:101F9000284601F053FF0121284601F08FFE284614
:101FA00001F00AF828B121A000F036FC002003F06F
:101FB00033F9234B002223A1284602F03BF810B14D
:101FC00022A000F029FC0023012227A1284602F0CC
:101FD00031F810B126A000F01FFC002302222BA133
:101FE000284602F027F810B12AA000F015FC30A016
:101FF00003908DF80040FEF74DF941F288340290CD
:102000006A4630A1284601F08BFB204603F0DEF83B
:10201000F6E7000031383833000000003137322E47
:1020200032302E31302E3132000000006D71747468
:102030005F636F6E6E656374206572720D0A0000D7
:10204000C54F0008746F7069633100006D7174745E
:102050005F73756273637269626520746F70696320
:1020600031206572720D0A00746F7069633200006E
:102070006D7174745F7375627363726962652074E5
:102080006F70696332206572720D0A00746F706937
:10209000633300006D7174745F737562736372698A
:1020A000626520746F70696333206572720D0A0077
:1020B0004920616D20776569646F6E677368616E32
:1020C000000000006D63755F7465737400000000AC
:1020D00010B510B1FEF7DEF80146084610BD00004D
:1020E0000D4808B5416941F0010141614069002294
:1020F00000F00100009005211020FEF7B7FD102030
:10210000FEF7A6FD002205211120FEF7AFFDBDE878
:1021100008401120FEF79CBD0010024000B587B0BA
:102120001C2207496846FEF77FF80021684602F046
:102130002CFA0449086000F053F907B000BD000014
:10214000A85E0008000000202DE9F04385B00024BF
:1021500027480094019402940394816941F040015E
:102160008161816901F040010491816941F00401BC
:102170008161816901F004010491816941F00801E4
:1021800081618069DFF86C8000F008000490012212
:1021900020214046FEF7D8FCDFF85C900122202188
:1021A0004846FEF7D1FC182001258DE8310069462C
:1021B0004046FEF7CDFB2027022600970396CDE987
:1021C000015469464046FEF7C3FBCDE90054694619
:1021D0000A480296FEF7BCFB00970396CDE901542E
:1021E00069464846FEF7B4FB05B0BDE8F083000041
:1021F0000010024000180140000C0140000801409E
:102200000C4810B50A4901604FF4E13141600021EA
:1022100081600C22C160C0E904128161C161FFF7D5
:102220004FFA002803D0BDE81040FEF739B910BDC1
:1022300000380140E40200200C4810B50A49016052
:102240004FF4E1314160002181600C22C160C0E99E
:1022500004128161C161FFF733FA002803D0BDE8A1
:102260001040FEF71DB910BD0044004028030020B7
:10227000FEE7FEE74A680B689A4202D14FF0FF3052
:1022800070474B6801F108029A5C02704868401C74
:10229000C0F3090048600020704710B50A684B6819
:1022A000521CD2B2934204D00C6801F10803E054EE
:1022B0000A6010BD012002F05CF9FBE710B5502068
:1022C00080F31188BFF34F8FBFF36F8F03F074FC5F
:1022D00018B104494FF080500860002080F3118845
:1022E00010BD000004ED00E030B58FB02821684635
:1022F000FDF7B3FF14210AA8FDF7AFFF0121080481
:10230000CDE900100024029402250491CDE9075084
:102310004FF4E01009906846FEF7E6FD08B172B68A
:10232000FEE70F20CDE90A054FF48060CDE90C40AF
:1023300002210AA80E94FEF7CBFC002801D072B649
:10234000FEE70FB030BD70470148FEF7C4BF000084
:10235000F4030020F0B502681C4B1D4D1D4E1E4FAE
:102360001E4C4FF0804C984209D0A04207D06045E7
:1023700005D0A84203D0B04201D0B84204D122F027
:10238000700E4A6842EA0E02984209D0A04207D075
:10239000604505D0A84203D0B04201D0B84203D175
:1023A00022F44075CA682A434D6922F080022A430C
:1023B00002608A68C2620A688262984201D0A042C2
:1023C00001D10969016301214161F0BD002C014087
:1023D0000004004000080040000C004000340140B0
:1023E0001CB5002400942346802207A109480194CB
:1023F00003F076FB0620CDE900040023802206A12D
:10240000084803F06DFB1CBD41545F52785F546176
:10241000736B00006D03000841545F54785F546192
:10242000736B00004D1F000810B5406A0021C18584
:10243000C184FFF73DF810BD70B5446A206840695B
:1024400094F83D10C0F3C0100025212904D118B123
:10245000E584204600F067F82068406994F83E1053
:10246000C0F38010222904D118B1E585204600F080
:1024700042F8206C40F0100020642046FFF718F866
:1024800070BD10B50146406A0968096889061BD409
:102490000021C1850168CA6822F48072CA6001689F
:1024A0004A6922F001024A6101684A6922F0400249
:1024B0004A61202180F83E10016B012904D1016896
:1024C000CA6822F01002CA60016B012902D0FFF72E
:1024D000D6F910BD818DFEF7BEFF10BD10B5406A64
:1024E000016B012902D0FFF7CBF910BD818D49089E
:1024F000FEF7B1FF10BD0168CA6822F49072CA608D
:1025000001684A6922F001024A61016B012904D184
:102510000168CA6822F01002CA60202180F83E10CB
:102520000021016370470168CA6822F0C002CA60D6
:10253000202180F83D10704708B590F83E10222900
:1025400001D0022008BD82684FF480539A4201D125
:10255000016921B1816A9A421BD04AB10AE002683E
:10256000816A5268C2F308020A80816A891C08E005
:10257000026972B10268526802F07F020A70816AD1
:10258000491C8162C18D491E0904090CC18503D013
:1025900019E002685268F1E70168CA6822F0200277
:1025A000CA600168CA6822F48072CA6001684A6918
:1025B00022F001024A61202180F83E10016B0129BE
:1025C00003D0FFF75CF9002008BD0021016301681A
:1025D000CA6822F01002CA6001680A68D20602D5F1
:1025E0000A6849680091818DFEF735FFEBE700002E
:1025F00070B5044600680169E26821F44051114356
:1026000001612169A0680843616908432168CA68BB
:1026100041F20C639A430243CA6020684169A2698F
:1026200021F44071114341611E492068884202D162
:10263000FEF714FC01E0FEF701FC00EBC00101EB2A
:102640000012606864218000B2FBF0F3B3FBF1F389
:102650006FF018067343B2FBF0F5B2FBF0F605EB32
:102660008305322303EB0515B5FBF1F5B6FBF1F657
:1026700005F0F00505EB0615B2FBF0F6B2FBF0F045
:10268000B0FBF1F06FF01802504306EB800003EB53
:102690000010B0FBF1F0216800F00F0028448860C2
:1026A00070BD00000038014038B581628285002588
:1026B000134604460564222084F83E00A26B1348AA
:1026C0009062A26B1248D062A26B12481063A06B9A
:1026D0000A4645632168A06B091DFEF701F92068D1
:1026E00001684168009184F83C50C16841F48071F0
:1026F000C1602068416941F0010141612068416980
:1027000041F040014161002038BD000083240008F1
:10271000DD240008392400082DE9F04198461746C9
:102720000E460446069D1DE0681C1BD02DB1FEF729
:1027300011FAA0EB0800A84214D92068C16821F45E
:10274000D071C1602068416921F001014161202000
:1027500084F83D0084F83E00002084F83C0003200B
:10276000BDE8F0812068006836EA000004D000204F
:10277000B842D9D00020F3E70120F9E70148FEF77D
:1027800099BE0000E402002038B5114C20680168B1
:10279000C943C90617D40168406800902046FEF777
:1027A0005BFEA06B006840680A4980B2C0F580609B
:1027B000C0F30E0040F4004008804FF480620649E8
:1027C0002046FFF747F8BDE838400148FEF772BEE3
:1027D000280300207C0000202C45002010B54FF479
:1027E000806205490548FFF735F804480068C1686C
:1027F00041F01001C16010BD2C45002028030020CD
:1028000089B213460A4601460148FFF73BB800006B
:1028100028030020FEE700000FB4054B10B503A904
:10282000044A029800F040F810BC5DF814FB000068
:10283000AD2C00088C0000200FB4084B10B504A983
:1028400002AA039800F030F8044602A9002000F024
:10285000CCF9204610BC5DF814FB0000EB2B0008FF
:102860000907090E002804DB00F1E02080F80014BD
:10287000704700F00F0000F1E02080F8141D704751
:1028800002E008C8121F08C1002AFAD17047704739
:10289000002001E001C1121F002AFBD170475060E7
:1028A000C0E90021086070472DE9FF4F8BB08846D2
:1028B0000546002606E025280BD0DDE90D129047DD
:1028C0006D1C761C28780028F5D10FB03046BDE885
:1028D000F08F0024A146A2460122AE4900E0044345
:1028E00015F8013F203B02FA03F00842F7D128789F
:1028F0002A2810D06FF02F022878A0F13001092982
:1029000015D809EB890102EB410144F0020400EB08
:1029100001096D1CF0E758F8041B5FEA010903D5B3
:1029200044F40054C9F1000944F002046D1C2878F5
:102930002E2817D115F8010F44F004042A280ED0D0
:102940006FF02F022878A0F1300109290AD80AEB8C
:102950008A0102EB410100EB010A6D1CF2E758F815
:1029600004AB6D1C28786C280FD006DC4C2817D0DF
:1029700068280DD06A2814D104E0742810D07A2871
:102980000FD10DE044F400140AE044F4801401E097
:1029900044F440146978814202D104F580146D1C1E
:1029A0006D1C2878692865D006DC00288DD0632846
:1029B00027D0642806D15DE06E2808D073282AD07D
:1029C000752877D0DDE90D129047761CE0E0C4F35E
:1029D0000250022809D003280DD0D8F8001004288E
:1029E0000DD00E6008F10408D2E0D8F80010F217FC
:1029F000C1E90062F6E7D8F800100E80F2E70E7029
:102A0000F0E718F8041B8DF8001000208DF8010085
:102A1000EB46012003E058F804BB4FF0FF3061079C
:102A20004FF0000701D40AE07F1C57450DDA8742BA
:102A3000FADB1BF807100029F6D106E07F1C87425D
:102A4000FCDB1BF807100029F8D1DDE90D23A9EB09
:102A500007008146214600F0B1F83044C61904E071
:102A6000DDE90D121BF8010B90477F1EF8D22146BD
:102A7000484688E058F8040BC4F302514FF00A0BA3
:102A8000032900D100B2042900D140B2002802DAA3
:102A900040422D2102E0210505D52B218DF824107F
:102AA000012104E006E0E10710D02021F6E708AF9D
:102AB000089113E058F8040BC4F302514FF00A0BCD
:102AC000032900D180B2042900D1C0B20021EEE771
:102AD0005946FDF7F5FB303107F8011D0028F7D105
:102AE000ADEB070000F1200B600702D524F4803421
:102AF00001E04FF0010ADA4502DDAAEB0B0000E02D
:102B00000020824600EB0B0108980144A9EB01006C
:102B10000A90E00306D4DDE90D2321460A9800F06F
:102B20004DF806444FF0000908E009A911F8090022
:102B3000DDE90D12904709F10109761C08998945D4
:102B4000F3DBE0030CD5DDE90D2321460A9800F004
:102B500035F8064404E0DDE90D1230209047761C7C
:102B6000BAF10001AAF1010AF5DC05E0DDE90D1278
:102B700017F8010B9047761CBBF10001ABF1010B7C
:102B8000F4DC0A982146DDE90D2300F005F806443F
:102B90006D1C97E6092801002DE9F0410446002547
:102BA0001E461746880404D405E039462020B04765
:102BB0006D1C641EF9D52846BDE8F0812DE9F04171
:102BC000044600251E469046C80301D5302700E084
:102BD0002027880404D505E041463846B0476D1CDF
:102BE000641EF9D52846BDE8F0810A68531C0B60C5
:102BF0001070704730B5044606480023026803E0B1
:102C000012F8015B25705B1C8B42F9DB0260084601
:102C100030BD0000780000200EB5086C074BC2687C
:102C200000780091CDE90102112205A10EA0FFF765
:102C3000F3FDBDE80E4018A0FFF7EEBDDC5E000816
:102C40002E2E5C6D717474636C69656E745C6D714D
:102C50007474636C69656E745C6D717474636C69B3
:102C6000656E742E6300000025733A256420257379
:102C700028292E2E2E0A746F7069633A2025732C32
:102C800020716F733A2025642C200A6D657373617F
:102C900067653A25730000000A00000010B5FDF7D3
:102CA000BBFABDE81040FDF7ADBA000013B54FF018
:102CB000FF33012269460248FEF7E4FD1CBD000017
:102CC000E4020020FDF754FFFFF70EFBFFF73CFA8C
:102CD000FFF796FAFFF704FAFFF7AEFAFDF7B6FB37
:102CE000FFF71CFA01F04CFCFEE7014600208429A6
:102CF00000D0C81C704710B5040006D000F022FCBC
:102D00002046BDE8104001F075BC10BDFEB50C4674
:102D10000546C16A02A801F0C7FD04F10800E96A8E
:102D200001F0C2FD05F15000064601F06DFC228B5A
:102D3000E169286AFDF778FA218B02AA284600F09B
:102D40008DFF304601F065FC218AE068CDE9000185
:102D5000054B40F2631205A10EA0FFF75DFD1AA01E
:102D6000FFF75AFDFEBD0000F05E00082E2E5C6DE0
:102D7000717474636C69656E745C6D717474636C8A
:102D800069656E745C6D717474636C69656E742EC4
:102D90006300000025733A256420257328292E2E10
:102DA0002E20726573656E64202564207061636BEC
:102DB0006167652C207061636B65745F696420696D
:102DC00073202564200000000A0000002DE9FC5F4C
:102DD00004460020019004F160009A4615460E4614
:102DE000DDF830B00746009000F0BAFB78B9206EED
:102DF0000AE0038AAB4206D1C268B24203D16FF047
:102E00001600BDE8FC9F0846B8420168F1D1B14602
:102E1000A84656465F460AF1200001F0E0FB050097
:102E200025D000F09AFB05F10800E16A01F03CFDB5
:102E3000C5F80C90A5F810802E8305F120006F6175
:102E4000E8613246216AFDF7EFF904F154000646C5
:102E500001F0DAFBA06A00F58070A062304601F054
:102E6000D8FB2846009900F068FB0198C9E76FF08D
:102E70000200C6E72DE9F041054660308846064667
:102E800000F06EFB002830D195F84C0001282CD1C1
:102E9000286E27E00746083001F011FD10B9B8F19F
:102EA000010F1ED0F86804280AD0052808D006288B
:102EB00006D0072804D0092807D00B2805D00AE03F
:102EC00039462846FFF722FF0BE0786918B100F079
:102ED0004EFB002078613846FFF70DFF284601F0D1
:102EE000FBF82046B0420468D4D1BDE8F0812DE95A
:102EF000F04705466030994617468846064600F07A
:102F00002FFBB0B9286E11E0018AB9420DD1C26819
:102F100042450AD1B9F1000F02D04269C9F8002038
:102F2000FFF7E9FE284601F0D7F82046B0420468D2
:102F3000EAD10020BDE8F0872DE9F0410446603079
:102F4000064600F00DFB4FF00008A0B9206E0CE023
:102F5000074600F0F7FA786918B100F008FBC7F8E7
:102F60001480384601F046FB2846B0420568EFD190
:102F7000304600F0EBFA94F82800A06204F1580003
:102F8000064600F0EDFA80B9A06D08E0074600F0B3
:102F9000D9FA3846C7F80C8001F02CFB2846B0421D
:102FA0000568F3D1304600F0D1FA2046BDE8F04183
:102FB0004FF0FF3100F0FABEAFF300802DE9F0438F
:102FC0009BB00446002018906FF003065822694910
:102FD00002A8FDF729F99CB194F84C00012814D0FF
:102FE000D4E903120023A06E01F0A8FAA06E01F04C
:102FF000A1FA05000BD0A06E48B101F0ABFA84E055
:103000006FF001001BB0BDE8F0830020FAE7594BD8
:1030100040F2DB321C3B58A161A0FFF7FDFB6AA028
:10302000FFF7FAFBA08CADF8200094F82800C0F35D
:1030300040008DF8220094F82800C0F303108DF8AA
:1030400010002068059060681290A0681590A06A32
:10305000C10711D000F001008DF82300A06C80683A
:103060000E90A06C00788DF84500A06C40788DF82B
:103070004400A06C40680B90A18C4FF47A704143DF
:1030800004F1740001F010FC04F15000814601F0DD
:10309000BBFA02AA616B206AFEF7C6FD071E29DD96
:1030A00019A8E16A01F000FC19AA3946204600F08F
:1030B000D5FD05001FD102270DF16408451E4046CD
:1030C00001F0FDFB40B94146204600F0ABFA054651
:1030D000B84203D0002DF2DA022D07D118A9481CFE
:1030E000236BE269FEF74DFC012801D0354602E072
:1030F0009DF860505DB1A06E01F02CFA00212046D1
:1031000000F054FE484601F084FA28467AE7E06E63
:1031100040B10121204600F049FEA06A20F00C00D9
:10312000A062EFE732210520CDE900014FF40063F2
:103130002246264926A001F094FBE06650B1012109
:10314000204600F033FEE06E01F0AAFBE06E01F0D5
:10315000A4FBE2E7A06E01F0FDF9064B35461C3BEF
:1031600040F2114204A11FA0FFF756FB16A0FFF783
:1031700053FBD2E7705F00082E2E5C6D7174746390
:103180006C69656E745C6D717474636C69656E7482
:103190005C6D717474636C69656E742E63000000FD
:1031A00025733A256420257328292E2E2E206D7133
:1031B000747420636F6E6E656374207375636365EA
:1031C00073732E2E2E0000000A000000C143000879
:1031D0006D7174745F7969656C645F746872656140
:1031E0006400000025733A256420257328292E2EBB
:1031F0002E206D717474207969656C642074687216
:10320000656164206372656174206661696C652E16
:103210002E2E00002DE9F04192B016468846074652
:103220004FF0FF3500F024F8040006D03246414646
:10323000684600F0E7F9226907E0F86F48B13246C6
:103240004146684600F0DEF9FA6F69463846904715
:103250000025F068FDF71EF80146F068FCF7FDFF59
:10326000D8E90110FCF7F9FF12B02846BDE8F0815B
:103270002DE9F041846D0F4600F15806256836E0CF
:10328000E16891B33846FEF77CFCA8BBD7E9011092
:103290000144E26820E000BF90F800C0BCF12F0FAD
:1032A0000AD02B2B0BD0232B13D0634518D12B2BFB
:1032B00005D0232B0DD00DE02F2B11D10AE0431C9C
:1032C00001E0831C401C8B4204D21B782F2BF8D1C9
:1032D00000E0481E401C521C13780BB18842DBD31F
:1032E000884202D113F0FF0F07D02C462D68B4425C
:1032F000C6D10020BDE8F081FFE72046FAE770B5AF
:1033000004465430054601F07FF9E08CA0F57F417A
:10331000FE3906D0401CE084284601F07AF9E08CA2
:1033200070BD0120F7E7000070B504460C2001F0E5
:1033300056F9A066011E3DD00020086048608860F4
:103340000121E18494F82810214AE26284F84C00BB
:10335000E063206432226064A2844021A162A06400
:10336000A0614FF47A71A067A1634FF48065E067B4
:103370002946204600F078FB2946204600F050FF01
:1033800004F1580000F0E9F804F1600000F0E5F8FD
:1033900004F1500001F030F904F1540001F02CF96F
:1033A00004F1700001F088FA04F1740001F084FA6D
:1033B000002070BD074B40F2554207A110A0FFF757
:1033C0002BFA19A0FFF728FA6FF0020070BD000079
:1033D000A0860100F35F00082E2E5C6D717474638B
:1033E0006C69656E745C6D717474636C69656E7420
:1033F0005C6D717474636C69656E742E630000009B
:1034000025733A256420257328292E2E2E206D61E0
:103410006C6C6F63206D656D6F7279206661696C8D
:1034200065642E2E2E0000000A00000090F94C006A
:10343000032804D0012805D06FF00D0070476FF00D
:10344000170070470020704738B50446FFF7EEFFBD
:10345000050038D104F1700001F031FA28B904F107
:10346000740001F02CFA00282CD094F8280010F0F9
:103470000C0F13D0144B4FF4956214A11DA0FFF74D
:10348000CBF924A0FFF7C8F9A06E01F063F8022180
:10349000204600F08BFC6FF00D0513E0616B206A95
:1034A000FEF789FC011E0DDD6A46204600F0D6FBC2
:1034B000050007D1A06A4FF0804101EB30104FEAC0
:1034C0003070A062284638BD3A6100082E2E5C6D2F
:1034D000717474636C69656E745C6D717474636C23
:1034E00069656E745C6D717474636C69656E742E5D
:1034F0006300000025733A256420257328292E2EA9
:103500002E2070696E67206F75747374616E6469C4
:103510006E6700000A00000010B5802001F05FF81F
:10352000040006D08021FCF798FE2046FFF7FCFE41
:1035300008B1002010BD204610BD4B680A46194650
:10354000FFF7ADB903C8416008607047D0E90012C9
:103550004A601160006040607047006040607047E2
:103560000168814201D1012070470020704710B5E9
:10357000040006D0FFF7E6FF2046BDE8104001F04A
:1035800039B810BD2DE9FC47044658300E460746B1
:10359000FFF7E6FFD8B9A46D16E0E06898B1D6F859
:1035A0000C9082464846FCF775FE80465046FCF774
:1035B00071FE01464046414505D102464946504606
:1035C000FCF76FFE30B12C46BC422568E5D10020E7
:1035D000BDE8FC87F168E068CDE90001064B40F2E8
:1035E000CF1206490648FFF717F904485C30FFF789
:1035F00013F90120ECE70000085F00086C2D0008BB
:103600001462000870B54C68164605463F2C00DB76
:103610003F2489682246FCF707FE002028552E64C7
:1036200070BD000070B586B00E4600250A460446FF
:1036300003A9039500F088FA03990E2963D2DFE805
:1036400001F00762653B10404010621D6222625E1D
:10365000083058D13048FFF7DFF830A0FFF7DCF82A
:1036600051E02046FFF7E2FE28BB206B009001AA44
:1036700004A902A8E369FEF760F937E03146204665
:1036800000F08FFC3FE0ADF800502046FFF7CEFE83
:1036900088B96846226BE169FEF725FA012832D124
:1036A00001ABBDF800200B212046FFF720FC01985C
:1036B00008B1FFF75CFF26E03146204600F062F9D2
:1036C00021E02046FFF7B2FEE8B9206B009001AA86
:1036D00004A902A8E369FEF730F9012813D19DF887
:1036E0000820BDF80410204600F010F90023BDF8B2
:1036F00004209DF808102046FFF7F9FB03E0A06ABC
:1037000020F00C00A0622046FFF79EFE002800D1AA
:10371000039806B070BD0000B06100080A00000008
:103720002DE9F047894690F84C104FF0000888B01A
:10373000144605464FF0FF36474600F1500A01296E
:1037400002D06FF00D066DE0E06820B1A16811B9FC
:10375000FCF7A0FDA060A068696B88420AD940A070
:10376000FFF75AF84EA0FFF757F86FF0070008B0C0
:10377000BDE8F087504600F047FF207858B1A86AAE
:103780004021B1EB102F02D86FF015064AE0284611
:10379000FFF7B5FDA080D4E90201CDE902970497B7
:1037A000CDE90510A1886078CDE9000123780022D9
:1037B000696B286AFEF702FB071E33DD014607AA84
:1037C000284600F04BFA06002CD1207850B3286A26
:1037D0000090286A0190286A4FF0010968B1684694
:1037E00001F0C6FB414660F307010809032804D134
:1037F00069F3C30101A801F0D5FE2078012802D0A9
:10380000022806D00EE0CDF80080BBB2A2880421C9
:1038100004E0CDF80080A288BBB205212846FFF75E
:10382000D5FA06465046C4F8088000F0F2FE16F1BC
:10383000160F01D0F01C10D11A4B4FF4B4621AA12C
:1038400023A0FEF7E9FF16A0FEF7E6FFA86E00F042
:1038500081FE0221284600F0A9FA304687E70000E1
:103860007075626C697368207061796C6F61642037
:103870006C656E2069732069732067726561746579
:1038800072207468616E20636C69656E7420777253
:10389000697465206275666665722E2E2E000000C2
:1038A0000A000000576100082E2E5C6D717474636D
:1038B0006C69656E745C6D717474636C69656E744B
:1038C0005C6D717474636C69656E742E63000000C6
:1038D00025733A256420257328292E2E2E207468FE
:1038E000657265206973206E6F7420656E6F7567F1
:1038F00068206D656D6F72792073706163652074E7
:103900006F207265636F72642E2E2E002DE9FC41CC
:103910000546503016460C46074600F075FE052E4B
:1039200004D0062E15D06FF0090425E00094002382
:103930000622696B286AFEF753F9064600200090BC
:10394000B3B2224607212846FFF740FA040013D1FC
:1039500007E0009400230722696B286AFEF740F90C
:103960000646002E02DC6FF00A0405E001AA31468B
:10397000284600F073F90446384600F04AFE204617
:10398000BDE8FC812DE9F0438DB000268846044651
:1039900037460796FFF74AFD050014D107AAE169EB
:1039A000206B0292CDE9031008AB0AA8CDE9000311
:1039B00005A8031D421C09A9801CFEF710F8012868
:1039C00004D06FF010000DB0BDE8F083099810F03E
:1039D000FF008DF814002FD004F15000814600F054
:1039E00013FE9DF81400012802D0022808D012E02E
:1039F000BDF81800009000230422616B206A06E0E5
:103A0000BDF81800009000230522616B206AFEF7C4
:103A1000E7F8061E05DC6FF01105484600F0F9FDD9
:103A20001FE001464246204600F018F90546484688
:103A300000F0EFFD002D14DB9DF8140002280BD1DF
:103A4000B3B20097BDF8182006212046FFF7BEF953
:103A5000054610F1170F04D005AA0AA92046FFF762
:103A6000D9FB2846AFE7000070B50D4604000CD026
:103A7000E06908B100F0BEFD2563022D11D96FF099
:103A8000704085420DD228460EE0114B40F225428F
:103A900010A11AA0FEF7C0FE20A0FEF7BDFE002078
:103AA00070BD4FF48060206300F099FDE06108B1C3
:103AB000206B70BD064B40F2334206A118A0FEF702
:103AC000ABFE16A0FEF7A8FE6FF0020070BD00006E
:103AD000C85F00082E2E5C6D717474636C69656E2E
:103AE000745C6D717474636C69656E745C6D717413
:103AF00074636C69656E742E6300000025733A254B
:103B00006420257328292E2E2E20636865636B2080
:103B1000666F72206572726F722E00000A000000DC
:103B200025733A256420257328292E2E2E206D61B9
:103B30006C6C6F63207265616420627566206661DB
:103B4000696C65642E2E2E002DE9F74F4FF00008AA
:103B500082B05FEA010904464FF00107454611D0E3
:103B6000E16A049800F0A0FE049800F0B5FE034658
:103B70003A46E169A06E00F0EBFC6FF0060B0128FD
:103B800058D104E06FF0010005B0BDE8F08F049853
:103B900000F0A2FE0126B246019004E00AF1010AFB
:103BA000BAF1040F10DCA06E01226946019B00F0FF
:103BB000CFFC012808D19DF8000000F07F0101FB37
:103BC0000655F6010006E9D4E06929463844FDF7B8
:103BD000C3FFC619206B711981421DD92F460026DB
:103BE000DDF81080B84200D80546404600F074FE6B
:103BF00003462A46E169A06E00F0AAFC28B10644FB
:103C0000256BB91BA94200D20D46BE4201DA00283D
:103C1000EBD16FF00700B7E7002D0DDD049800F041
:103C20005BFE0346E0692A468119A06E00F090FC15
:103C3000A84201D05846A7E7E0690178404661F301
:103C400007000109C9F80010A18C4FF47A704143B4
:103C500004F1740000F028FE002095E72DE9F04102
:103C60000E460546C16A17460024104600F01CFEA9
:103C70000CE0384600F030FE0346286A324601194F
:103C8000A86E00F074FC002807DD0444B44204DA96
:103C9000384600F014FE0028EBD0B4420AD1A98CBB
:103CA0004FF47A70414305F1700000F0FDFD0020F3
:103CB000BDE8F0816FF01200FAE7000010B530B1F6
:103CC000826A61F341028262C2F3400010BD064B7A
:103CD0004FF4916205A10FA0FEF79EFD15A0FEF71F
:103CE0009BFD002010BD0000A56000082E2E5C6D1D
:103CF000717474636C69656E745C6D717474636CFB
:103D000069656E745C6D717474636C69656E742E34
:103D10006300000025733A256420257328292E2E80
:103D20002E20636865636B20666F72206572726F08
:103D3000722E00000A00000010B510B101600846A4
:103D400010BD064B40F27F4205A10FA0FEF764FDB7
:103D500015A0FEF761FD002010BD0000FD5F00080A
:103D60002E2E5C6D717474636C69656E745C6D711C
:103D70007474636C69656E745C6D717474636C6982
:103D8000656E742E6300000025733A256420257348
:103D900028292E2E2E20636865636B20666F7220A3
:103DA0006572726F722E00000A00000070B5044642
:103DB00054300D46064600F027FC84F84C5030463F
:103DC000BDE8704000F025BC10B510B1C1600846D8
:103DD00010BD064B40F2824205A10FA0FEF71CFD6C
:103DE00015A0FEF719FD002010BD00003560000889
:103DF0002E2E5C6D717474636C69656E745C6D718C
:103E00007474636C69656E745C6D717474636C69F1
:103E1000656E742E6300000025733A2564202573B7
:103E200028292E2E2E20636865636B20666F722012
:103E30006572726F722E00000A00000010B510B19A
:103E40008160084610BD064B40F2814205A10FA0DB
:103E5000FEF7E2FC15A0FEF7DFFC002010BD00001D
:103E6000236000082E2E5C6D717474636C69656E3E
:103E7000745C6D717474636C69656E745C6D71747F
:103E800074636C69656E742E6300000025733A25B7
:103E90006420257328292E2E2E20636865636B20ED
:103EA000666F72206572726F722E00000A00000049
:103EB00010B510B10161084610BD064B40F28342B7
:103EC00005A10FA0FEF7A8FC15A0FEF7A5FC002099
:103ED00010BD0000436000082E2E5C6D7174746389
:103EE0006C69656E745C6D717474636C69656E7415
:103EF0005C6D717474636C69656E742E6300000090
:103F000025733A256420257328292E2E2E206368D8
:103F100065636B20666F72206572726F722E00008F
:103F20000A00000010B510B14160084610BD064BF4
:103F30004FF4906205A10FA0FEF76EFC15A0FEF7EE
:103F40006BFC002010BD0000106000082E2E5C6D80
:103F5000717474636C69656E745C6D717474636C98
:103F600069656E745C6D717474636C69656E742ED2
:103F70006300000025733A256420257328292E2E1E
:103F80002E20636865636B20666F72206572726FA6
:103F9000722E00000A0000004FF47A71484300F0CE
:103FA000A6BC30B587B00446002004900290039070
:103FB0002046FFF73BFA00280DD1216BE069CDE9DF
:103FC000000102AB04AA012105A8FDF74EFD01285E
:103FD00003D06FF00C0007B030BD029880280FD0DE
:103FE000002503ABBDF8142009212046FEF77FFF12
:103FF000039838B14DB1FFF7BAFA6FF00E00EAE757
:104000000125EEE76FF00200E5E7054644B12946D9
:104010002046FFF7B7FA30B12846FFF7A8FA07E0C5
:104020006FF00100D7E704F158012846FFF785FA41
:104030000020D0E72DE9FF4F87B00546002004900F
:104040000391059095F84C001F4688466FF01304C5
:10405000012803D0A01D0BB0BDE8F08F2846FFF764
:104060004EF9824605F15000834600F0CDFA09AAC8
:1040700003A901208DE8070053460022696B286AD6
:10408000FDF7EEFE061E1DDD014606AA2846FFF7D7
:10409000E5FD040016D107B90E4F9DF824901420B9
:1040A00000F09DFA040012D0FFF757FA84F8089048
:1040B000C4E90387B3B25246092128460094FEF7AB
:1040C00085FE0446584600F0A4FA2046C3E76FF088
:1040D0000204F7E7192C000870B504465430002597
:1040E000064600F091FAA06A010A02D0A0F580709D
:1040F000A062304600F08DFA284670BD70B50546C6
:1041000090F84C006FF0030401280CD02846FEF70D
:1041100053FF040007D1284600F008F804460021A8
:104120002846FEF7A7FE204670BD00002DE9F041AD
:1041300006466FF01405184B40F23B2217A121A050
:10414000FEF76AFB29A0FEF767FB06F15800074659
:10415000FFF706FA10B10020BDE8F081B06D40F223
:104160004528046814E0D0E90313027A3046FFF7CB
:1041700061FF054610F1160F08D1074B424607A113
:104180001BA0FEF749FB19A0FEF746FB204624685A
:10419000B842E8D12846DFE7225F00082E2E5C6D8A
:1041A000717474636C69656E745C6D717474636C46
:1041B00069656E745C6D717474636C69656E742E80
:1041C0006300000025733A256420257328292E2ECC
:1041D0002E206D717474207472792072657375620B
:1041E000736372696265202E2E2E00000A000000A3
:1041F00025733A256420257328292E2E2E206D71D3
:1042000074742061636B2068616E646C6572206EEB
:10421000756D20746F6F206D756368202E2E2E00D3
:1042200070B50D4604000CD0206A08B100F0E2F928
:104230006563022D11D96FF0704085420DD228467A
:104240000EE0114B40F23B4210A11AA0FEF7E4FA37
:1042500020A0FEF7E1FA002070BD4FF4806060639B
:1042600000F0BDF9206208B1606B70BD064B40F2F2
:10427000494206A118A0FEF7CFFA16A0FEF7CCFA25
:104280006FF0020070BD0000DD5F00082E2E5C6D37
:10429000717474636C69656E745C6D717474636C55
:1042A00069656E745C6D717474636C69656E742E8F
:1042B0006300000025733A256420257328292E2EDB
:1042C0002E20636865636B20666F72206572726F63
:1042D000722E00000A00000025733A256420257321
:1042E00028292E2E2E206D616C6C6F6320777269E9
:1042F000746520627566206661696C65642E2E2E79
:104300000000000038B505004FF0000401D019B1DD
:1043100003E04FF0FF3038BDE96A684600F0C4FAA8
:1043200032E000BF95F94C00032811D0012812D0CB
:10433000AA6F12B12846A96990472846FFF7DEFE0A
:10434000040021D0A86BFFF727FE6FF00F0420E0D8
:104350006FF0170038BD69462846FFF763F904007F
:1043600004D401212846FEF785FD0DE014F10E0F5F
:104370000FD1094B40F29532084909A0FEF74CFADB
:1043800006485C30FEF748FA684600F098FA0028C4
:10439000C8D0204638BD0000375F00086C2D0008EB
:1043A00025733A256420257328292E2E2E206D7121
:1043B0007474206E6F7420636F6E6E65637400009A
:1043C00070B5044690F84C0001280CD01C4B40F20C
:1043D000A7321CA125A0FEF71FFA32A0FEF71CFA97
:1043E000E06E00F05EFA40F2B3352046E16AFFF776
:1043F00089FF10F1180F0BD01030F6D1104B2A4660
:1044000010A129A0FEF708FA26A0FEF705FAECE7AE
:104410000B4B40F2AE320BA12EA0FEF7FDF921A00E
:10442000FEF7FAF9A06E00F087F82046FEF784FD4B
:104430000021E06EE166BDE8704000F007BA0000C0
:10444000425F00082E2E5C6D717474636C69656E3A
:10445000745C6D717474636C69656E745C6D717499
:1044600074636C69656E742E6300000025733A25D1
:104470006420257328292E2E2E2C206D7174742013
:104480006973206E6F7420636F6E6E65637465640C
:1044900020746F20746865207365727665722E2EA5
:1044A0002E0000000A00000025733A2564202573C1
:1044B00028292E2E2E2C206D717474207265636F46
:1044C0006E6E6563742074696D656F75742E2E2E23
:1044D0002E00000025733A256420257328292E2EEE
:1044E0002E2C206D71747420636C65616E20736571
:1044F0007373696F6E2E2E2E2E00000010B50446C9
:104500000022D4E9000100F09DF8A060002800DB43
:10451000002010BD10B5040002D0A06800F080F8A3
:104520004FF0FF30A06010BD806800F039B980689E
:1045300000F04AB9FFF7E2BFFFF7ECBF28B14FF038
:10454000FF3380E80E00002070476FF001007047D5
:10455000FFF7EABF10B504468068002802DB20465A
:10456000FFF7D8FF002020606060A06010BDFFF75B
:10457000DEBF10B500B9012000F028FE002010BDFC
:1045800010B500F03DFF002010BD7FB50D4604467C
:104590004169B0F9080081B1A16971B1FEF7A5FBCD
:1045A000D4E905128DE80700D4E900102B462269F2
:1045B00001F0C3FA039004B070BDFEF796FB03A9A7
:1045C000CDE90001208A2B4682B2D4E9001001F027
:1045D00087FA012801D00020EDE70398EBE770B5DA
:1045E000054600F0C7FB040002D02946FBF735FE64
:1045F000204670BD00F0AABD10B50446012001F0B0
:1046000055F82060002010BD00684FF0FF3101F028
:1046100071B9002300681A46194601F0BBB80000C2
:104620004FF4FA6201A103A0FBF7DEBE4F4B0D0A67
:104630000000000041542B434950434C4F53450D5B
:104640000A0000002DE9F04342F2107799B01546B8
:10465000884681464FF4FA667C00324619A11BA0B9
:10466000FBF7C2FE010002D01CA0FEF7D5F83A46C7
:1046700020A122A0FBF7B8FE010002D022A0FEF785
:10468000CBF822460FA125A0FBF7AEFE010001D01A
:104690002AA00EE043464A4675B12DA16846FEF7B2
:1046A000CBF8224607A16846FBF79EFE010005D025
:1046B0002EA0FEF7B1F8D0E732A1EFE719B0002045
:1046C000BDE8F0834F4B0D0A0000000041542B431E
:1046D000574D4F44453D310D0A00000041542B43D6
:1046E000574D4D4F44453D3120657272203D202588
:1046F000640D0A0072656164790D0A0041542B5201
:1047000053540D0A0000000041542B5253542065AD
:104710007272203D2025640D0A00000041542B4395
:10472000574A41503D224B656E74222C223838384E
:104730003838383838220D0A0000000041542B4325
:104740005751415020657272203D2025640D0A00AA
:1047500041542B43495053544152543D22554450E7
:10476000222C222573222C25730D0A0041542B4341
:104770004950535441525420657272203D202564A3
:104780000D0A000041542B43495053544152543DAB
:1047900022544350222C222573222C25730D0A000B
:1047A0002DE9F0411F4615460E46002408E0301959
:1047B0003946FBF7BFFD10B10020BDE8F081641C55
:1047C000AC42F4DB2846F8E770B586B00E461D46CD
:1047D00014460FA16846FEF72FF84FF4FA6210A1B5
:1047E0006846FBF701FE020003D069460EA0FEF703
:1047F00013F82A4621463046FBF720FE010005D07B
:104800000DA0FEF709F8002006B070BD2046FBE7BA
:1048100041542B43495053454E443D25640D0A00F5
:104820004F4B0D0A00000000257320657272203D79
:104830002025640A0000000053656E6444617461C1
:1048400020657272203D2025640A000010B5040026
:1048500002D0206800F0E0FC2046BDE81040FFF7E1
:10486000C9BE2DE9FC4707461D4616468946042069
:10487000DDF82880FFF7B3FE0446CDE90084AAB234
:1048800033463946484601F02BF90128204602D02C
:10489000FFF7B0FE0020BDE8FC87006800F072BDA5
:1048A0007047006800F0E2BD70B50C46054601F0A7
:1048B0007DF92044286070BD00210160704710B56B
:1048C000044601F073F92168884201D9012010BD26
:1048D000002010BD01F06AB910B5044601F066F978
:1048E0002168814201D8002010BD081A10BD00F0D7
:1048F0006DBC00002DE9F041134C0F46054666697A
:104900002068001D00F09EFB681C07D137B12168AC
:10491000BDE8F0410D48091D00F0D8BB20683544C2
:10492000B5424560216805D2A068BDE8F041091D87
:1049300000F0B4BB6068091D00F0B0FB206B85423D
:1049400000D22563BDE8F081140000201805002086
:104950002DE9F041054600F0C5FB2D4C2069401CB7
:10496000206120682B4F10B1E06940B32DE0256035
:104970002069012829D1002606EB860007EB80007C
:1049800000F07EFB761C072EF6D322488C3000F018
:1049900077FB2048A03000F073FB1E48B43000F0D5
:1049A0006FFB1C48C83000F06BFB1A48DC3000F08D
:1049B00067FB18488C3060601430A06005E0206808
:1049C000E96AC06A884200D82560E06A401CE0625B
:1049D000E86AA169884200D9A06100EB800007EB7A
:1049E0008000291D00F072FB00F09CFBE0690028AC
:1049F0000CD02068E96AC06A884207D206494FF0A5
:104A000080500860BFF34F8FBFF36F8FBDE8F08118
:104A1000140000203C04002004ED00E02DE9F041EA
:104A2000856B174604460026026C82B1C7B1E06868
:104A3000FBF7FAFBE168206C091AE16022689142F9
:104A400002D26168081AE060022F16D017E02068D1
:104A5000A8B9606801F014F90646002060600EE015
:104A6000A068FBF7E1FB216CA0680844A0606168C6
:104A7000884204D32068A06001E005B16D1E6D1C62
:104A8000A5633046BDE8F08110B5044690F85100AA
:104A900058B101280CD002280FD0502080F3118883
:104AA000BFF34F8FBFF36F8FFEE7206B00F04EFB1D
:104AB0002046BDE8104000F049BB10BD10484FF43F
:104AC0008041420706D0C01D0D4920F00700411A61
:104AD000C1F580410B4A00230144C2E900030839B3
:104AE000103A21F0070111604B600B600B1AC0E90E
:104AF000001393604FF000405360D0607047000097
:104B00002C05002060000020144E154CA6F1C807AB
:104B10004FF08058DFF84C9012E000BF00F0E2FA4E
:104B2000F068C568281D00F08DFA2069401E2061DC
:104B3000E068401EE06000F0F5FA2846FFF7A4FFA9
:104B4000E0680028EAD138680128F9D9C9F800805E
:104B5000BFF34F8FBFF36F8FF2E700000405002013
:104B60001400002004ED00E0002807D0002141607F
:104B700001600B460A46C16000F00CBE7047034658
:104B8000009829B10260C0E90F31012100F0BEBDDB
:104B90000060F8E72DE9F0479A46DDE9098481468F
:104BA0006FF00303206B03EB82021044089D20F09A
:104BB0000706700707D0502080F31188BFF34F8F8E
:104BC000BFF36F8FFEE723180A5C83F834200A5C7A
:104BD00012B1401C1028F6D3002784F84370072D2B
:104BE00000D30625E562C4E91157201D00F053FAF1
:104BF00004F1180000F04FFA2461C5F10700646267
:104C0000A061E76484F8507052464946304600F08F
:104C100029F92060B8F1000F01D0C8F80040BDE8C4
:104C2000F087000030B5114900E011460A68824261
:104C3000FBD34B685C18844203D140681844486039
:104C4000084643681C18944209D1084C103C24685B
:104C5000A24209D052681A4442600A68126802608F
:104C6000814200D0086030BD0460F9E76000002098
:104C700010B5044600F036FAA06B28B15FF00004CE
:104C800000F050FA204610BD0124F9E706484168BB
:104C9000096829B14168C968C968496801637047F2
:104CA0004FF0FF31FAE70000140000200848406888
:104CB000401C4FF0500080F3118804D0BFF34F8F99
:104CC000BFF36F8FFEE7BFF34F8FBFF36F8FFEE72A
:104CD00068000020002150B10A4B42699A420FD16E
:104CE000806AA3F1280290420AD040B108E0502027
:104CF00080F31188BFF34F8FBFF36F8FFEE7012161
:104D000008467047180500202DE9F041044600F0E0
:104D1000E9F994F9455004F1240609E0606A48B1C4
:104D2000304601F029F808B100F0C6FA6D1E6DB2E8
:104D3000002DF3DC4FF0FF3684F8456000F0F2F907
:104D400000F0D0F994F9445004F1100709E020690B
:104D500048B1384601F010F808B100F0ADFA6D1E08
:104D60006DB2002DF3DC84F84460BDE8F04100F042
:104D7000D9B900002DE9F0410546002700F0C4FB39
:104D8000314E306808B9FFF799FEF06805424BD103
:104D9000C5B3083568070ED005F00700C0F108005C
:104DA0000544680707D0502080F31188BFF34F8F68
:104DB000BFF36F8FFEE72DB37068854234D8224869
:104DC000103001460C6801E020460C466168A9429B
:104DD00002D221680029F7D131688C4224D00768BB
:104DE0002168016060680837411B10290FD96019DC
:104DF000420708D0502080F31188BFF34F8FBFF3D4
:104E00006F8FFEE710E041606560FFF70BFF6168A0
:104E10007068401A7060B268904200D2B060F0686A
:104E200001430020C4E9000100F0DCFF780707D04F
:104E3000502080F31188BFF34F8FBFF36F8FFEE7D1
:104E40003846BDE8F08100005000002004490868A1
:104E500018B10868826C521C8264086870470000B0
:104E60001400002010B5031F4FF080741C601B1F3E
:104E700021F001011960191F024B0B6014394038F1
:104E80000A6010BDAD4C000870B5FFF723FD094A5C
:104E90000324116880EA0103B3FBF4F504FB153326
:104EA00020FA03F319441160BDE870404840FDF753
:104EB000F5BE0000740000202DE9F05F0746401C9D
:104EC000FFF78DFB06000CD0FFF7DEFF86EA00013E
:104ED00008448146FDF7E2FE0024A2464FF01A0B7B
:104EE00032E00020BDE8F09F89EA0000FDF7D6FE21
:104EF00005460320B5FBF0F100FB1150B0F10008AE
:104F000006D001280DD0B8F1020F23D0782012E08E
:104F10002846FDF7C3FE90FBFBF20BFB120041306D
:104F200009E004F001006840FDF7B8FE90FBFBF2D9
:104F30000BFB120061300D49305585EA010004EA8F
:104F4000080188402844641CBC42CDD306F807A061
:104F50003046C7E704F002006840FDF79FFE0A21D3
:104F600090FBF1F201FB12003030E4E7C6E533B408
:104F7000016811F8012B01601046704701684A78FA
:104F800011F8023B016002EB032210467047F0B5B6
:104F9000054608680026101A17460C4601280CDD45
:104FA0000846FFF7EBFF686021680A18BA4204D888
:104FB000A96021680126084420600020286030464E
:104FC000F0BD00001CB50C460D48FDF725FC0DA0FA
:104FD000FDF722FC206C0C4B8E22C0680BA1CDE9A2
:104FE00000400EA0FDF718FC06A0FDF715FC0448D4
:104FF000FDF712FCBDE81C4002A0FDF70DBC00004F
:105000005C6200080A000000946100082E2E5C4CCF
:1050100069625C576966692E6300000025733A2552
:105020006420257328292E2E2E0D0A746F70696353
:105030003A2025730D0A6D6573736167653A2573B0
:1050400000000000D0E9013201699A60D0E9012333
:105050005A604A68824201D182684A600022026135
:105060000868401E0860086870470000034B036032
:1050700003F1540008608020106070479000002009
:1050800000F108014FF0FF32C0E90112C160016177
:1050900000210160704700210161704730B50B6845
:1050A0005A1C02D000F1080202E0026904E0224624
:1050B000546825689D42FAD953684B6099608A60AC
:1050C000516008610168491C016030BD42684A6056
:1050D00093688B6093685960916008610168491C0E
:1050E00001607047502080F31188BFF34F8FBFF3EA
:1050F0006F8F0A494868401C486001280CD1084855
:10510000006810F0FF0F07D0502080F31188BFF324
:105110004F8FBFF36F8FFEE77047000068000020DD
:1051200004ED00E00849486828B1401E486001D1FC
:1051300080F311887047502080F31188BFF34F8FA0
:10514000BFF36F8FFEE700006800002070B50028F5
:1051500027D0144DA0F108046168E868014207D126
:10516000502080F31188BFF34F8FBFF36F8FFEE79E
:1051700022683AB1502080F31188BFF34F8FBFF3FC
:105180006F8FFEE78143616000F0BEF96068696877
:10519000084468602046FFF745FDBDE8704000F018
:1051A00021BE70BD500000204FF0E02000210161C1
:1051B000816105494FF47A720968B1FBF2F1491E29
:1051C00041610721016170471000002010B5020005
:1051D00014D00F48806B38B1502080F31188BFF392
:1051E0004F8FBFF36F8FFEE700F08EF9002110465E
:1051F000FFF780FB00F0F6FD002807D105494FF0CE
:1052000080500860BFF34F8FBFF36F8F10BD000059
:105210001400002004ED00E070B50546FFF762FFC2
:105220001E4C05B92568281DFFF70CFFA86A18B1A8
:1052300005F11800FFF706FFE06A401CE0622068F5
:10524000854207D1291D1648FFF740FFE068401C42
:10525000E06007E02069401E20612846FFF714FC4B
:10526000FFF714FDFFF75EFFE069002814D0206807
:10527000854211D1A06B38B1502080F31188BFF363
:105280004F8FBFF36F8FFEE706494FF080500860E5
:10529000BFF34F8FBFF36F8F70BD0000140000206D
:1052A0000405002004ED00E002498A6A02604969B1
:1052B0004160704714000020014901204862704796
:1052C0001400002010B50C4650B109490968183186
:1052D000FFF7E4FE2046BDE810400121FFF70ABBBE
:1052E000502080F31188BFF34F8FBFF36F8FFEE71D
:1052F0001400002070B504003ED0A26CA2B1606C16
:10530000884200D30146E06A884235D0012A33D171
:105310001A4D2A6894420FD1502080F31188BFF3B0
:105320004F8FBFF36F8FFEE7502080F31188BFF3DC
:105330004F8FBFF36F8FFEE7E162A269002A02DBA5
:10534000C1F10701A1610E4E00EB8000616906EB1F
:105350008000814210D1201DFFF774FEE06AA96928
:10536000884200D9A86100EB800006EB8000211D77
:10537000BDE87040FFF7AABE70BD00001400002019
:105380003C04002070B504002AD01A4D28688442DD
:105390002ED0FFF7A7FE2046FFF79CFCE0B1201DB2
:1053A000FFF750FEE06AA969884200D9A861124956
:1053B00000EB800001EB8000211DFFF787FEE06A13
:1053C0002968C96A884207D30C494FF080500860A9
:1053D000BFF34F8FBFF36F8FBDE87040FFF7A2BEE2
:1053E000502080F31188BFF34F8FBFF36F8FFEE71C
:1053F00070BD0000140000203C04002004ED00E01B
:1054000010B586B00024039405AA04A903A8049447
:10541000FFF72CFEDDE903010094CDE90110002324
:105420000EA11048059A00F088FB0F490028486338
:1054300011D0502080F31188BFF34F8FBFF36F8FCF
:105440004FF0FF3008630120C8614C6106B0BDE831
:10545000104000F0D7B806B010BD000049444C45DC
:1054600000000000094B00081400002070B504463D
:10547000FFF738FE214D04B92C68201DFFF7E2FD2F
:10548000A06A18B104F11800FFF7DCFD211D1C48CB
:10549000FFF71CFE94F850000026012801D184F883
:1054A0005060FFF73FFEE86928B1FFF71BFEFFF7EA
:1054B000EDFBFFF737FE2868844213D1E86990B10D
:1054C000A86B38B1502080F31188BFF34F8FBFF322
:1054D0006F8FFEE70B494FF080500860BFF34F8F8E
:1054E000BFF36F8F70BD064800682969884201D1FB
:1054F0002E6070BDBDE8704000F00EB814000020B2
:105500001805002004ED00E00248816B491C81630E
:105510007047000014000020164810B5816B11B1CF
:105520000121416210BD002141628169124A01E0FE
:10553000B9B1491E01EB810352F82330002BF7D09B
:1055400001EB810302EB830202F1080453685B68FC
:105550005360A34201D15B685360DA6802608161E5
:1055600010BD502080F31188BFF34F8FBFF36F8FB2
:10557000FEE70000140000203C04002070B5044643
:105580000E460846FAF786FE05460146204600F01C
:105590000FF82A4631462068FAF746FE206828446C
:1055A000206070BD026811700168491C016070477D
:1055B00010B5CA17046801EB12631A0A2270026858
:1055C000521C026011700168491C016010BD70B569
:1055D000141E1E4605460BDD1146FFF7E9FF224665
:1055E00031462868FAF720FE28682044286070BDFC
:1055F00019B1BDE87040FFF7C1BFBDE870400021A0
:10560000FFF7D6BF1CB5264908780190FF20087027
:1056100008788DF800009DF800009DF8002000F04B
:10562000F000904207D0502080F31188BFF34F8FD5
:10563000BFF36F8FFEE79DF800001A4B00F050009B
:1056400018700720986005E09DF8002052008DF842
:105650000020401E9DF800201206F5D49860032813
:1056600007D0502080F31188BFF34F8FBFF36F8FA7
:10567000FEE74FF440709860019808700A4801688E
:1056800041F470010160016841F070410160FFF771
:105690008BFD00205860FAF769FD00201CBD00005A
:1056A00000E400E06800002020ED00E010B50246B4
:1056B0000021012000F005F80446FFF755FA2046C6
:1056C00010BDF8B517460E46050014D0DEB105FB37
:1056D00006F04830FFF74EFB04000AD0002084F8A3
:1056E000460004F148023B46314628460094FFF745
:1056F00046FA2046F8BD502080F31188BFF34F8F43
:10570000BFF36F8FFEE70020E3E7000070B50D46A2
:10571000040025D0FFF7E6FCD4E90F20216802FB46
:10572000001161600021A1632168A1600A46D4E9EB
:105730000F01401E00FB0121E16021464FF0FF30C8
:1057400001F8440F487004F110008DB1FFF798FC88
:1057500004F12400FFF794FCFFF7E4FC012070BD86
:10576000502080F31188BFF34F8FBFF36F8FFEE798
:1057700021690029F0D000F0FFFA0028ECD004499C
:105780004FF080500860BFF34F8FBFF36F8FE3E798
:1057900004ED00E02DE9FF4782B01D468A464FF038
:1057A0000008040003D0BAF1000F08D011E0502027
:1057B00080F31188BFF34F8FBFF36F8FFEE7206C2C
:1057C00038B1502080F31188BFF34F8FBFF36F8F34
:1057D000FEE7022D0AD1E06B012807D0502080F3AC
:1057E0001188BFF34F8FBFF36F8FFEE700F0D0F942
:1057F0003F4F4FF000094FF0805648B9049838B138
:10580000502080F31188BFF34F8FBFF36F8FFEE7F7
:10581000FFF768FCA06BE16B884207D3022D05D02F
:105820000498D0B1B8F1000F1AD01EE02A465146B4
:105830002046FFF7F3F8616A19B104F1240000F083
:105840009BFA20B13E60BFF34F8FBFF36F8FFFF71E
:1058500069FC012006B0BDE8F087FFF763FC22E099
:105860006846FFF721FD4FF00108FFF75BFCFFF7EB
:105870004BFEFFF737FC94F94400401C01D184F83B
:10588000449094F94500401C01D184F84590FFF7FD
:1058900049FC04A9684600F0E9F830B12046FFF75A
:1058A00033FA00F09FFA0020D4E7FFF71BFCA06B4F
:1058B000E16B884213D1FFF735FC04F11000049925
:1058C000FFF700FD2046FFF71FFA00F08BFA0028D3
:1058D0009ED13E60BFF34F8FBFF36F8F98E7FFF706
:1058E00021FC2046FFF710FA00F07CFA90E7000058
:1058F00004ED00E02DE9F343002683B004003546B3
:1059000009D0206C78B1502080F31188BFF34F8FFD
:10591000BFF36F8FFEE7502080F31188BFF34F8FE6
:10592000BFF36F8FFEE700F033F9DFF83C814FF0F3
:1059300000094FF0805748B9049838B1502080F3DF
:105940001188BFF34F8FBFF36F8FFEE7FFF7CAFBDE
:10595000A06BC8B1401EA063206810B9FFF776FAAB
:105960006060206950B104F1100000F005FA28B120
:10597000C8F80070BFF34F8FBFF36F8FFFF7D2FBF4
:10598000012005B0BDE8F083049808B166B10FE0CE
:105990003DB1502080F31188BFF34F8FBFF36F8F5D
:1059A000FEE7FFF7BFFB5DE06846FFF77DFC0126E1
:1059B000FFF7B8FBFFF7A8FDFFF794FB94F944004D
:1059C000401C01D184F8449094F94500401C01D159
:1059D00084F84590FFF7A6FB04A9684600F046F856
:1059E0000028204612D0FFF78FF900F0FBF920467F
:1059F000FFF73EF90028A9D09DB3FFF773FB606A5B
:105A000050B3206B0068C0F1070126E0FFF730F9C2
:105A1000E0B1206838B9FFF765FB606800F070F905
:105A20000546FFF77FFB04F124000499FFF74AFCC9
:105A30002046FFF769F900F0D5F9002886D1C8F8AB
:105A40000070BFF34F8FBFF36F8F7FE72046FFF7E4
:105A50005BF900F0C7F979E700216068FFF74AFCBD
:105A60009FE7FFE700208CE704ED00E02DE9F0411F
:105A70000C46050011D0C4B1FFF734FB174B5A692F
:105A80006E682068911B471C17D02F689B6A9F4245
:105A900019D0964217D8012410E0502080F31188C5
:105AA000BFF34F8FBFF36F8FFEE7502080F3118855
:105AB000BFF34F8FBFF36F8FFEE70024FFF732FB7A
:105AC0002046BDE8F081884205D9401A206028466A
:105AD000FFF7EAFBF1E700202060DCE7140000207C
